{
  "contractName": "Channel",
  "abi": [
    {
      "constant": true,
      "inputs": [],
      "name": "channelSender",
      "outputs": [
        {
          "name": "",
          "type": "address"
        }
      ],
      "payable": false,
      "stateMutability": "view",
      "type": "function"
    },
    {
      "constant": true,
      "inputs": [],
      "name": "startDate",
      "outputs": [
        {
          "name": "",
          "type": "uint256"
        }
      ],
      "payable": false,
      "stateMutability": "view",
      "type": "function"
    },
    {
      "constant": true,
      "inputs": [],
      "name": "maxcalls",
      "outputs": [
        {
          "name": "",
          "type": "uint256"
        }
      ],
      "payable": false,
      "stateMutability": "view",
      "type": "function"
    },
    {
      "constant": true,
      "inputs": [
        {
          "name": "",
          "type": "bytes32"
        }
      ],
      "name": "signatures",
      "outputs": [
        {
          "name": "",
          "type": "address"
        }
      ],
      "payable": false,
      "stateMutability": "view",
      "type": "function"
    },
    {
      "constant": true,
      "inputs": [
        {
          "name": "",
          "type": "address"
        }
      ],
      "name": "allowance",
      "outputs": [
        {
          "name": "",
          "type": "uint8"
        }
      ],
      "payable": false,
      "stateMutability": "view",
      "type": "function"
    },
    {
      "constant": true,
      "inputs": [],
      "name": "value",
      "outputs": [
        {
          "name": "",
          "type": "uint256"
        }
      ],
      "payable": false,
      "stateMutability": "view",
      "type": "function"
    },
    {
      "constant": true,
      "inputs": [],
      "name": "somme",
      "outputs": [
        {
          "name": "",
          "type": "uint256"
        }
      ],
      "payable": false,
      "stateMutability": "view",
      "type": "function"
    },
    {
      "constant": true,
      "inputs": [],
      "name": "max",
      "outputs": [
        {
          "name": "",
          "type": "uint256"
        }
      ],
      "payable": false,
      "stateMutability": "view",
      "type": "function"
    },
    {
      "constant": true,
      "inputs": [],
      "name": "timeout",
      "outputs": [
        {
          "name": "",
          "type": "uint256"
        }
      ],
      "payable": false,
      "stateMutability": "view",
      "type": "function"
    },
    {
      "inputs": [
        {
          "name": "_value",
          "type": "uint256"
        },
        {
          "name": "_timeout",
          "type": "uint256"
        },
        {
          "name": "_max",
          "type": "uint256"
        }
      ],
      "payable": false,
      "stateMutability": "nonpayable",
      "type": "constructor"
    },
    {
      "anonymous": false,
      "inputs": [
        {
          "indexed": false,
          "name": "",
          "type": "bytes32"
        }
      ],
      "name": "show_hash",
      "type": "event"
    },
    {
      "anonymous": false,
      "inputs": [
        {
          "indexed": false,
          "name": "",
          "type": "string"
        }
      ],
      "name": "exceeded_max_allowed",
      "type": "event"
    },
    {
      "anonymous": false,
      "inputs": [
        {
          "indexed": false,
          "name": "",
          "type": "string"
        }
      ],
      "name": "show_stateHouse",
      "type": "event"
    },
    {
      "constant": false,
      "inputs": [
        {
          "name": "_ad",
          "type": "address"
        },
        {
          "name": "_hash",
          "type": "bytes32"
        }
      ],
      "name": "reserve",
      "outputs": [],
      "payable": false,
      "stateMutability": "nonpayable",
      "type": "function"
    },
    {
      "constant": false,
      "inputs": [],
      "name": "get_somme",
      "outputs": [
        {
          "name": "",
          "type": "uint256"
        }
      ],
      "payable": false,
      "stateMutability": "nonpayable",
      "type": "function"
    },
    {
      "constant": false,
      "inputs": [
        {
          "name": "hash",
          "type": "bytes32"
        },
        {
          "name": "v",
          "type": "uint8"
        },
        {
          "name": "r",
          "type": "bytes32"
        },
        {
          "name": "s",
          "type": "bytes32"
        },
        {
          "name": "_value",
          "type": "uint256"
        }
      ],
      "name": "open_channel",
      "outputs": [],
      "payable": true,
      "stateMutability": "payable",
      "type": "function"
    },
    {
      "constant": false,
      "inputs": [],
      "name": "is_allowed",
      "outputs": [
        {
          "name": "",
          "type": "bool"
        }
      ],
      "payable": false,
      "stateMutability": "nonpayable",
      "type": "function"
    },
    {
      "constant": false,
      "inputs": [
        {
          "name": "h",
          "type": "bytes32"
        },
        {
          "name": "v",
          "type": "uint8"
        },
        {
          "name": "r",
          "type": "bytes32"
        },
        {
          "name": "s",
          "type": "bytes32"
        },
        {
          "name": "value",
          "type": "uint256"
        }
      ],
      "name": "CloseChannel",
      "outputs": [],
      "payable": false,
      "stateMutability": "nonpayable",
      "type": "function"
    },
    {
      "constant": false,
      "inputs": [],
      "name": "ChannelTimeout",
      "outputs": [],
      "payable": false,
      "stateMutability": "nonpayable",
      "type": "function"
    },
    {
      "constant": true,
      "inputs": [
        {
          "name": "hash",
          "type": "bytes32"
        },
        {
          "name": "v",
          "type": "uint8"
        },
        {
          "name": "r",
          "type": "bytes32"
        },
        {
          "name": "s",
          "type": "bytes32"
        }
      ],
      "name": "verify",
      "outputs": [
        {
          "name": "",
          "type": "address"
        }
      ],
      "payable": false,
      "stateMutability": "view",
      "type": "function"
    }
  ],
  "bytecode": "0x6060604052341561000f57600080fd5b604051606080610ed98339810160405280805190602001909190805190602001909190805190602001909190505082600281905550816004819055508060058190555042600181905550336000806101000a81548173ffffffffffffffffffffffffffffffffffffffff021916908373ffffffffffffffffffffffffffffffffffffffff160217905550505050610e2e806100ab6000396000f3006060604052600436106100e6576000357c0100000000000000000000000000000000000000000000000000000000900463ffffffff168063075aa0c4146100eb5780630b97bc86146101405780631df4f796146101695780632422224e1461019257806339658245146101f95780633e5beab91461020e5780633fa4f24514610269578063536db3b6146102925780635ccb6b86146102bb57806365adf642146102e45780636ac5db191461032f57806370dea79a14610358578063897a691d14610381578063acc01018146103ae578063adacb0fa146103f4578063f1835db71461044a575b600080fd5b34156100f657600080fd5b6100fe6104d7565b604051808273ffffffffffffffffffffffffffffffffffffffff1673ffffffffffffffffffffffffffffffffffffffff16815260200191505060405180910390f35b341561014b57600080fd5b6101536104fc565b6040518082815260200191505060405180910390f35b341561017457600080fd5b61017c610502565b6040518082815260200191505060405180910390f35b341561019d57600080fd5b6101b7600480803560001916906020019091905050610508565b604051808273ffffffffffffffffffffffffffffffffffffffff1673ffffffffffffffffffffffffffffffffffffffff16815260200191505060405180910390f35b341561020457600080fd5b61020c61053b565b005b341561021957600080fd5b610245600480803573ffffffffffffffffffffffffffffffffffffffff16906020019091905050610588565b6040518082600281111561025557fe5b60ff16815260200191505060405180910390f35b341561027457600080fd5b61027c6105a8565b6040518082815260200191505060405180910390f35b341561029d57600080fd5b6102a56105ae565b6040518082815260200191505060405180910390f35b34156102c657600080fd5b6102ce6105b8565b6040518082815260200191505060405180910390f35b61032d60048080356000191690602001909190803560ff1690602001909190803560001916906020019091908035600019169060200190919080359060200190919050506105be565b005b341561033a57600080fd5b610342610815565b6040518082815260200191505060405180910390f35b341561036357600080fd5b61036b61081b565b6040518082815260200191505060405180910390f35b341561038c57600080fd5b610394610821565b604051808215151515815260200191505060405180910390f35b34156103b957600080fd5b6103f2600480803573ffffffffffffffffffffffffffffffffffffffff1690602001909190803560001916906020019091905050610939565b005b34156103ff57600080fd5b61044860048080356000191690602001909190803560ff1690602001909190803560001916906020019091908035600019169060200190919080359060200190919050506109c2565b005b341561045557600080fd5b61049560048080356000191690602001909190803560ff169060200190919080356000191690602001909190803560001916906020019091905050610ca2565b604051808273ffffffffffffffffffffffffffffffffffffffff1673ffffffffffffffffffffffffffffffffffffffff16815260200191505060405180910390f35b6000809054906101000a900473ffffffffffffffffffffffffffffffffffffffff1681565b60015481565b60035481565b60096020528060005260406000206000915054906101000a900473ffffffffffffffffffffffffffffffffffffffff1681565b4260045460015401111561054e57600080fd5b6000809054906101000a900473ffffffffffffffffffffffffffffffffffffffff1673ffffffffffffffffffffffffffffffffffffffff16ff5b60086020528060005260406000206000915054906101000a900460ff1681565b60025481565b6000600654905090565b60065481565b600554600354101561077f57600160028111156105d757fe5b600860003373ffffffffffffffffffffffffffffffffffffffff1673ffffffffffffffffffffffffffffffffffffffff16815260200190815260200160002060009054906101000a900460ff16600281111561062f57fe5b14801561063b57503481145b801561067d57503373ffffffffffffffffffffffffffffffffffffffff1661066586868686610ca2565b73ffffffffffffffffffffffffffffffffffffffff16145b156107755760028081111561068e57fe5b600860003373ffffffffffffffffffffffffffffffffffffffff1673ffffffffffffffffffffffffffffffffffffffff16815260200190815260200160002060009054906101000a900460ff1660028111156106e657fe5b5050600360008154809291906001019190505550803073ffffffffffffffffffffffffffffffffffffffff163101600681905550600554600354141561077057600254600654141561075b576001600760006101000a81548160ff0219169083600281111561075157fe5b021790555061076f565b600360008154809291906001900391905055505b5b61077a565b600080fd5b61080e565b7f4316e44abb2f3f96f3795508d35c85be3a4d56f6bf9673941a835e52c5ddbee860405180806020018281038252602b8152602001807f746869732066756e6374696f6e20686173206265656e2063616c6c6564206d6f81526020017f7265207468616e206d617800000000000000000000000000000000000000000081525060400191505060405180910390a15b5050505050565b60055481565b60045481565b60006001600281111561083057fe5b600760009054906101000a900460ff16600281111561084b57fe5b14156108cd5760028081111561085d57fe5b600860003373ffffffffffffffffffffffffffffffffffffffff1673ffffffffffffffffffffffffffffffffffffffff16815260200190815260200160002060009054906101000a900460ff1660028111156108b557fe5b14156108c45760019050610936565b60009050610936565b7f46a0820357f13296ffade10cf6475de9872caa15a487cd97b3bc6c3f4e0275ee6040518080602001828103825260188152602001807f7468697320686f757365206973206e6f742072656e746564000000000000000081525060200191505060405180910390a15b90565b6001600860008473ffffffffffffffffffffffffffffffffffffffff1673ffffffffffffffffffffffffffffffffffffffff16815260200190815260200160002060006101000a81548160ff0219169083600281111561099557fe5b02179055506002600760006101000a81548160ff021916908360028111156109b957fe5b02179055505050565b6000806109d187878787610ca2565b91506002808111156109df57fe5b600860008473ffffffffffffffffffffffffffffffffffffffff1673ffffffffffffffffffffffffffffffffffffffff16815260200190815260200160002060009054906101000a900460ff166002811115610a3757fe5b14158015610a9257506000809054906101000a900473ffffffffffffffffffffffffffffffffffffffff1673ffffffffffffffffffffffffffffffffffffffff168273ffffffffffffffffffffffffffffffffffffffff1614155b15610a9c57600080fd5b3083604051808373ffffffffffffffffffffffffffffffffffffffff1673ffffffffffffffffffffffffffffffffffffffff166c01000000000000000000000000028152601401828152602001925050506040518091039020905086600019168160001916141515610b0d57600080fd5b600060096000836000191660001916815260200190815260200160002060009054906101000a900473ffffffffffffffffffffffffffffffffffffffff1673ffffffffffffffffffffffffffffffffffffffff161415610bc6578160096000836000191660001916815260200190815260200160002060006101000a81548173ffffffffffffffffffffffffffffffffffffffff021916908373ffffffffffffffffffffffffffffffffffffffff160217905550610c99565b8173ffffffffffffffffffffffffffffffffffffffff1660096000836000191660001916815260200190815260200160002060009054906101000a900473ffffffffffffffffffffffffffffffffffffffff1673ffffffffffffffffffffffffffffffffffffffff16141515610c98576000809054906101000a900473ffffffffffffffffffffffffffffffffffffffff1673ffffffffffffffffffffffffffffffffffffffff166108fc849081150290604051600060405180830381858888f193505050501515610c9757600080fd5b5b5b50505050505050565b6000610cac610dee565b60006040805190810160405280601c81526020017f19457468657265756d205369676e6564204d6573736167653a0a333200000000815250915081876040518083805190602001908083835b602083101515610d1d5780518252602082019150602081019050602083039250610cf8565b6001836020036101000a03801982511681845116808217855250505050505090500182600019166000191681526020019250505060405180910390209050600181878787604051600081526020016040526000604051602001526040518085600019166000191681526020018460ff1660ff16815260200183600019166000191681526020018260001916600019168152602001945050505050602060405160208103908084039060008661646e5a03f11515610dd957600080fd5b50506020604051035192505050949350505050565b6020604051908101604052806000815250905600a165627a7a7230582083eb5a78c5738133c0e4d8cedc59df85c61699697f2913722e0906c37f9bda630029",
  "source": "pragma solidity ^0.4.17;\r\n\r\ncontract Channel {\r\n\r\n\taddress public channelSender;\r\n\tuint public startDate;\r\n\tuint public value;\r\n\tuint public maxcalls;\r\n\tuint public timeout;\r\n\tuint public max;\r\n  uint public somme;\r\n\r\n\tenum House { available , rented, reserved }\r\n\tHouse stateHouse;\r\n\tenum existsNot { donotexist, pending , allowed }\r\n\r\n\tmapping(address => existsNot) public allowance;   // Who is allowed to access house\r\n\tmapping (bytes32 => address) public signatures;\r\n\r\n\tevent show_hash(bytes32);\r\n\tevent exceeded_max_allowed(string);\r\n\tevent show_stateHouse(string);\r\n\r\n\r\n\r\n\tfunction Channel(uint _value, uint _timeout, uint _max)public {\r\n\t    value = _value;\r\n\t    timeout = _timeout;\r\n\t    max = _max;\r\n\t    startDate = now;\r\n\t    channelSender = msg.sender;\r\n\r\n\t}\r\n\r\n\r\n\tfunction reserve(address _ad,bytes32 _hash ) public {\r\n\r\n\r\n\t        allowance[_ad] = existsNot.pending;\r\n\t        //show_hash(_hash);\r\n\t        stateHouse = House.reserved;\r\n\t      //  show_stateHouse(\"stateHouse is reserved\");\r\n\t}\r\n\r\n    function get_somme()returns(uint){\r\n      return somme;\r\n    }\r\n\r\n\r\n    function open_channel(bytes32 hash, uint8 v , bytes32 r , bytes32 s , uint _value) payable {\r\n     // uint somme;\r\n      if(maxcalls<max){\r\n\r\n         // somme += msg.value;\r\n             // verify if the one who called the function is someone in the mapping and has put the exact value he said he would put\r\n        if((allowance[msg.sender] == existsNot.pending) && (_value == msg.value) && (verify(hash,v,r,s)==msg.sender)){\r\n                allowance[msg.sender] == existsNot.allowed; // grant access\r\n                maxcalls ++;\r\n                somme = this.balance + _value;\r\n                 if (maxcalls == max){\r\n                     if( somme == value){\r\n                           stateHouse = House.rented;}\r\n                           else{\r\n                               // value not met\r\n                               maxcalls--;\r\n                           }\r\n\r\n                 }\r\n\r\n             }\r\n        else{\r\n          revert();\r\n        }\r\n\r\n      }\r\n      else{\r\n\r\n      exceeded_max_allowed(\"this function has been called more than max\" );\r\n\r\n      }\r\n\r\n\r\n    }\r\n\r\n\r\n\r\n        function is_allowed()public returns(bool) {\r\n            if(stateHouse == House.rented){\r\n                if(allowance[msg.sender] == existsNot.allowed){\r\n                    return true;\r\n                }\r\n                else{\r\n                    return false;\r\n                }\r\n\r\n            }else{\r\n                show_stateHouse(\"this house is not rented\");\r\n            }\r\n\r\n        }\r\n\r\n\r\n\r\n\tfunction CloseChannel(bytes32 h, uint8 v, bytes32 r, bytes32 s, uint value){\r\n\r\n        address signer;\r\n        bytes32 proof;\r\n\r\n        // get signer from signature\r\n        signer = verify(h, v, r, s);\r\n\r\n        // signature is invalid, throw\r\n        if (allowance[signer] !=  existsNot.allowed && signer != channelSender) throw;\r\n\r\n        proof = sha3(this, value);\r\n\r\n        // signature is valid but doesn't match the data provided\r\n        if (proof != h) throw;\r\n\r\n        if (signatures[proof] == 0)\r\n            signatures[proof] = signer;\r\n        else if (signatures[proof] != signer){\r\n        // channel completed, both signatures provided\r\n            if (!channelSender.send(value)) throw;\r\n\r\n        }\r\n\r\n}\r\n\r\n\tfunction ChannelTimeout(){\r\n\t\tif (startDate + timeout > now)\r\n\t\t\tthrow;\r\n\r\n\t\tselfdestruct(channelSender);\r\n\t}\r\n\r\n\r\n\r\n\tfunction verify(bytes32 hash, uint8 v, bytes32 r, bytes32 s)  constant returns(address) {\r\n\r\n        bytes memory prefix = \"\\x19Ethereum Signed Message:\\n32\";\r\n        bytes32 prefixedHash = keccak256(prefix, hash);\r\n        return ecrecover(prefixedHash, v, r, s);\r\n    }\r\n\r\n}\r\n",
  "sourcePath": "C:\\Users\\sfehri\\workspace\\ngtest\\angular4-truffle-starter-dapp\\contracts\\Channel.sol",
  "compiler": {
    "name": "solc",
    "version": "0.4.19+commit.c4cbbb05.Emscripten.clang"
  },
  "schemaVersion": "1.0.1",
  "updatedAt": "2018-02-15T15:19:07.907Z"
}